:020000040C00EE
:100000000008001001020008B1020008B102000857
:10001000B1020008B1020008B102000800000000AF
:10002000000000000000000000000000B102000815
:10003000B102000800000000B1020008D52200084B
:10004000B1020008B1020008B1020008B1020008C4
:10005000B1020008B1020008B1020008B1020008B4
:10006000B1020008000000000000000000000000D5
:10007000B102000800000000B1020008B10200084F
:10008000B1020008B1020008B1020008B102000884
:10009000B1020008B1020008B1020008B102000874
:1000A000B1020008B1020008B1020008B102000864
:1000B000B1020008B1020008B1020008B102000854
:1000C000B1020008B1020008B1020008B102000844
:1000D000B1020008B1020008B1020008B102000834
:1000E000B1020008B1020008B1020008B102000824
:1000F000B1020008B1020008B1020008B102000814
:10010000B1020008B1020008B1020008B102000803
:10011000B1020008B1020008B1020008B1020008F3
:10012000B1020008B1020008B1020008B1020008E3
:10013000B1020008B1020008B1020008B1020008D3
:10014000B1020008B1020008B1020008B1020008C3
:10015000B1020008B1020008B1020008B1020008B3
:10016000000000000000000000000000000000008F
:10017000B1020008B1020008B1020008B102000893
:10018000B1020008B1020008B1020008B102000883
:10019000B1020008B1020008B10200084D1E0008BB
:1001A000B10200085D1E0008B1020008B10200089B
:1001B000B1020008B1020008B1020008B102000853
:1001C000B1020008B1020008B1020008B102000843
:1001D000B1020008B1020008B102000800000000EE
:1001E000B1020008B1020008B1020008B102000823
:1001F000B102000800000000B10200080000000089
:10020000DFF88CD023488047234C244DAC4209DAD8
:1002100021686268A368043BA2BFC858D050FAE7BF
:100220000C34F3E71E4B1F4CA34208DA19685A68D6
:100230000020043AA4BF8850FBE70833F4E71A48CB
:1002400080471A4880470000342D000C0000002031
:10025000A8000000DC2D000C0000003000000000B1
:10026000342D000C0008001000000000342D000C9C
:100270000008001000000000A80000205C01000041
:100280000000003000000000000800100000000026
:1002900000080010B50200084802000878020008B3
:1002A0007802000890020008B92B00085D2B0008B6
:1002B000FEE7000098B500AF054A4FF00053144622
:1002C0000FCB84E80F0002F0F3F902F05BFA98BD5F
:1002D000C4FF002080B584B000AF2F4BDB6803F46F
:1002E0008033002B3ED02D4BDB6803F00103002B45
:1002F00002D02B4BFB6002E002F03AFAF860274B89
:100300001B6803F00403002B20D0244B9B6803F0F0
:1003100070631B0E0133BB60204B9B6803F4FE43EC
:100320001B0A01337B601D4B9B6803F4FE031B0C0F
:1003300001333B60BB683A6802FB03F3FA68B2FB27
:10034000F3F37A6802FB03F3FB600DE0134B9B6849
:1003500003F07F0301333B60FA683B68B2FBF3F3C1
:10036000FB6001E00E4BFB600B4BDB68DBB2013343
:10037000FA68B2FBF3F3FB60074B1B6903F0010360
:100380000133FA68B2FBF3F3FB60064AFB681360C3
:100390001037BD4680BD00BF0046005010470050DA
:1003A00000366E01C0FF002080B485B000AFF86059
:1003B0000B467A60FB72FB7A9B08DBB21846FB7A2D
:1003C0009B08DBB21A46FB68043253F82220FB7A02
:1003D00003F00303DB001946F8238B40DB4302EAFA
:1003E0000301FB68021D43F82210FB685A6FFB7A79
:1003F0005B00194603238B40DB431A40FB685A67B6
:10040000FB68374A934203D0FB68364A93420AD1CD
:10041000FB681A6EFB7A012101FA03F3DB431A40F1
:10042000FB681A663CE07B685A68FB7A9A40FB6876
:100430005A60FB7ADB08DBB21846FB7ADB08DBB2DA
:100440001A46FB68103253F82220FB7A03F00703A8
:100450009B00194607238B40DB4302EA0301FB683C
:1004600000F1100243F82210FB7ADB08DBB21846D9
:10047000FB7ADB08DBB21A46FB68103253F8222005
:100480007B681B7A1946FB7A03F007039B0001FA8D
:1004900003F342EA0301FB6800F1100243F8221063
:1004A000FB7A9B08DBB21846FB7A9B08DBB21A4644
:1004B000FB68043253F822207B681B781946FB7ACC
:1004C00003F00303DB0001FA03F342EA0301FB68D4
:1004D000021D43F822101437BD465DF8047B7047B7
:1004E000008E0248008F024880B400AF034B1B68A7
:1004F0001846BD465DF8047B704700BFC0FF002072
:1005000080B584B000AF7860FFF7E4FE0B4B1B684A
:100510000B4AA2FB03239A0C7B6802FB03F37B606C
:100520000023FB6003E000BFFB680133FB60FA6857
:100530007B689A42F7D31037BD4680BDC0FF0020CC
:1005400083DE1B43B0B584B002AF7860002000F0BA
:1005500095F800F017FA7B68DB79002B0AD000F0E1
:100560004FFA00BF00F03AFA034683F00103DBB212
:10057000002BF7D17B685B7A184600F0F9F87B68AE
:100580001B7A184600F0D8F97B681B7C184600F0EF
:100590000DF97B685B7C184600F030F97B689B7C2A
:1005A000184600F017F97B68DB7C184600F03AF932
:1005B0007B689B79002B0AD000F054FA00BF00F052
:1005C00079FA034683F00103DBB2002BF7D17B6895
:1005D000DB78002B02D100F091FA14E000F07EFAF3
:1005E0007B6899887B68DA787B685B781D467B68D6
:1005F0001B781C467B689B780093084611462A4668
:10060000234600F08BFA7B68DB68B3F5803F03D1AB
:100610004FF4803000F032F8FFF75CFE0837BD463B
:10062000B0BD00BF80B485B000AF78607B681B0FA1
:10063000FB607B6823F07043BB60FA6813465B0085
:1006400013449B001A46044B1344BA681A601437CB
:10065000BD465DF8047B70471444005080B500AF80
:10066000FFF742FF0246044B5B6903F0010322FAE5
:1006700003F3184680BD00BF0046005080B483B02D
:1006800000AF78600649064BDB6823F480327B6854
:100690001343CB600C37BD465DF8047B704700BF49
:1006A0000046005080B483B000AF78600649064B26
:1006B0009B6923F480327B6813438B610C37BD4602
:1006C0005DF8047B704700BF0046005080B483B0E3
:1006D00000AF78600649064B5B6A23F440327B68C2
:1006E00013434B620C37BD465DF8047B704700BF77
:1006F0000046005080B483B000AF0346FB80FB8807
:10070000002B08D10A4A0A4BDB6823F4807323F0DC
:100710000103D36007E0064A054BDB6843F48073AE
:1007200043F00103D3600C37BD465DF8047B70478E
:100730001047005080B483B000AF0346FB7100BF88
:10074000094BD3F8C43003F00803002BF8D1074954
:10075000064BDB6823F04002FB791343CB600C3778
:10076000BD465DF8047B70470040005000430050D8
:1007700080B483B000AF0346FB7100BF094BD3F8D0
:10078000C43003F00803002BF8D10749064BDB689F
:1007900023F08002FB791343CB600C37BD465DF834
:1007A000047B7047004000500043005080B483B089
:1007B00000AF78600649064BDB6823F0FF027B68D8
:1007C000013B1343CB600C37BD465DF8047B70479B
:1007D0000046005080B483B000AF78600649064BF5
:1007E0001B6A23F001027B68013B13430B620C3749
:1007F000BD465DF8047B70470046005080B483B06E
:1008000000AF78600649064B1B6923F001027B6844
:10081000013B13430B610C37BD465DF8047B704709
:100820000046005080B483B000AF78600649064BA4
:100830005B6923F001027B68013B13434B610C377A
:10084000BD465DF8047B70470046005080B483B01D
:1008500000AF78600649064B9B6923F007027B686E
:10086000013B13438B610C37BD465DF8047B704739
:100870000046005080B483B000AF78600649064B54
:10088000DB6923F03F027B68013B1343CB610C37EC
:10089000BD465DF8047B70470046005080B483B0CD
:1008A00000AF78600649064B5B6A23F0FF027B6865
:1008B000013B13434B620C37BD465DF8047B704728
:1008C0000046005080B483B000AF78603960194AA8
:1008D000184B5B6943F001035361164A154B5B6982
:1008E00043F01003536113493B68013B1A027B68D4
:1008F000013B1B0613434B610E4A0E4B5B6943F0F1
:10090000400353610B4A0B4B5B6923F010035361A7
:10091000084A084B5B6943F48023536100BF054BD1
:100920001B6903F00403002BF9D00C37BD465DF8BA
:10093000047B70471047005080B582B000AF03467B
:10094000FB710F4A0E4B5B6843F480135360FB79D5
:10095000012B0ED10A4A0A4B5B6823F480135360C3
:100960006420FFF7CDFD064A054B5B6843F4002386
:1009700053606420FFF7C4FD0837BD4680BD00BF4B
:100980001047005080B400AF124B1B6803F0010306
:10099000002B09D10F4B01225A6000BF0D4B1B6881
:1009A00003F00103002BF9D00B4B1B6803F4007319
:1009B000002B0AD0084B4FF400729A6000BF064B20
:1009C0001B6803F40073002BF9D1BD465DF8047B6E
:1009D000704700BF004200500044005080B400AF98
:1009E000064B1B6803F00803002B0CBF01230023F8
:1009F000DBB21846BD465DF8047B704700430050EB
:100A000080B400AF00BF154BD3F8C43003F08003AF
:100A1000002BF8D1124A124BDB6923F03003D3616B
:100A200000BF0E4BD3F8C43003F00803002BF8D1FD
:100A30000B4A0B4BDB6843F00803D36000BF074B46
:100A4000D3F8C43003F00403002BF8D1044B082280
:100A50009A60BD465DF8047B704700BF00400050BF
:100A600000430050B0B500AF0F4A0F4B5B6823F452
:100A7000803353600D4D0D4B5B6823F4702424F0DC
:100A8000300401F075FE0246094BA3FB02231B0D47
:100A9000013B1B0423436B60034A034B5B6823F455
:100AA00000335360B0BD00BF1047005000470050F6
:100AB0006BCA5F6B80B400AF074B1B6803F46073B5
:100AC000B3F5607F0CBF01230023DBB21846BD469F
:100AD0005DF8047B704700BF1047005080B400AF42
:100AE000054A054B5B6823F4803323F0020353600F
:100AF000BD465DF8047B70471047005080B400AFDE
:100B0000054A054B5B6843F4803343F002035360AE
:100B1000BD465DF8047B70471047005080B586B035
:100B200000AFBA607B600346FB810B467B73FB8999
:100B30001846FFF7DFFD7B7B012B40F08480FB89AB
:100B4000002B09D101F014FE02464B4BA3FB0223FC
:100B50009B0C9B057B6102E04FF0C0637B617B696E
:100B60007A6802FB03F2BB68B2FBF3F37B617B693B
:100B7000424AA2FB03231B099B0D3B61404A404BA9
:100B80005B6843F0010353603D4A3D4B5B6843F0B3
:100B9000100353603A493A4B9A683A4B13407A68CB
:100BA000013A12021A433B69013B1B041A43BB681A
:100BB000013B1B0613438B60314A314B5B6843F0AA
:100BC000400353602E4A2E4B5B6823F010035360A2
:100BD0002B4A2B4B5B6843F48023536000BF284BA8
:100BE0001B6803F00403002BF9D0254A244B5B68F3
:100BF00023F00103536000BF214B1B6803F0010386
:100C0000002BF9D17B69204AA2FB03235B099B0DD2
:100C10003B613A6A3B699A4202D2386900F038F87F
:100C20007B695B08194AA2FB03235B099B0D3B61AF
:100C30003A6A3B699A4202D2386900F029F8386A68
:100C400000F026F815E00E490D4B9B6823F07F025B
:100C50003B6A013B13438B60094A094B5B6843F0D5
:100C60000103536000BF064B1B6803F00103002B18
:100C7000F9D01837BD4680BD83DE1B43ABAAAAAAB4
:100C800010470050FF8080F089888888B7600BB6D5
:100C900080B582B000AF78600749074B9B6823F4AA
:100CA000FE027B68013B1B0413438B603220FFF77D
:100CB00027FC0837BD4680BD1047005080B483B084
:100CC00000AF78600B46FB701346BB707B685A6FB1
:100CD000FB785B00194603238B40DB431A407B689B
:100CE0005A677B685A6FBB78F97849008B401A4382
:100CF0007B685A670C37BD465DF8047B704700BFC0
:100D000080B483B000AF78607B689B6BDBB223F06C
:100D10007F03DBB218460C37BD465DF8047B704795
:100D200080B483B000AF786039607B683A68DA6479
:100D30000C37BD465DF8047B704700BF80B584B0BA
:100D400000AF786039601023FB60786800F08CF8A1
:100D50003B68DB79002B02D03B68DB79FB603B68AA
:100D60001B6878681946FA6800F0CAF83B689B79F6
:100D7000013B5A00FB685B0801331B02134343F439
:100D8000403343F001037A68D3633B681B79013B2E
:100D90001B0643F481727B685A633B685B79002BC6
:100DA00009D07B685A6B3B685B79013B1B041A4393
:100DB0007B685A6308E07B685A6B3B681B79013B90
:100DC0001B041A437B685A637B684FF4A0629A63E2
:100DD0007B684FF0FF32DA643B681B891A467B68F8
:100DE0001A641037BD4680BD80B582B000AF786010
:100DF0000B467B807B68D3F8083103F0E063002B5F
:100E000010D100BF7868FFF77BFF0346802BF9D035
:100E100078684FF40051FFF783FF7A887B68C3F846
:100E2000802003E07A887B68C3F880210837BD46BC
:100E300080BD00BF80B485B000AF78607B68D3F818
:100E40000C3103F0E063002B03D17B685B6DFB8109
:100E500003E07B68D3F81C31FB81FB89184614370B
:100E6000BD465DF8047B704780B582B000AF786006
:100E70007B681A4A934203D07B68194A934203D194
:100E8000184800F079F916E07B68174A934203D0BE
:100E90007B68164A934203D1154800F06DF90AE0C9
:100EA0007B68144A934203D07B68134A934202D171
:100EB000124800F061F97B680322DA6000BF7B68AA
:100EC000DB6803F00103002BF9D07B681B6C23F077
:100ED0000F027B681A640837BD4680BD00000340DE
:100EE00000020340080003400000024800020248DC
:100EF00008000248004002480042024808400248F8
:100F000080B58EB000AFF860B9607A60BB68632BC3
:100F100058D97B68002B55D0FFF7A0FB02462E4B1B
:100F2000A3FB02235B093B62BB682B4AA2FB0323A2
:100F30005B09BB600123FB620123BB6240F2FF330C
:100F40007B6240F2FF333B6322E03B6A3A6B02FB79
:100F500003F2BB68796801FB03F3B2FBF3F3FB61B7
:100F6000FB699B0ABB61FB69C3F309037B61BB6936
:100F7000B3F5806F09D27A697B6A9A4205D27B69A0
:100F80007B62BB69BB623B6BFB623B6B013B3B63C0
:100F90003B6B002BD9D1FB6A43F40042FB681A611A
:100FA000FB685A690D4B13407A68013A92021A4362
:100FB000BB6A013B1B041A43FB685A61002387F894
:100FC000373002E0012387F8373097F8373018467A
:100FD0003837BD4680BD00BF1F85EB51EF8000FC58
:100FE00080B485B000AFF860B9603B601346FB7118
:100FF000FB68D3F8083123F0E062FB68C3F80821EE
:10100000FB68D3F80821094B13403A681102BA680B
:101010001143FA7912060A431A43FB68C3F8082100
:101020001437BD465DF8047B704700BFC0C0FFF8B1
:1010300080B485B000AFF860B9603B601346FB71C7
:10104000FB68D3F80C3123F0E062FB68C3F80C2195
:10105000FB68D3F80C210A4B13403A681102BA68B6
:101060001143FA7912060A43134343F08052FB6896
:10107000C3F80C211437BD465DF8047B704700BFF0
:10108000C0C0FFEF80B485B000AFF8600B467A6057
:10109000FB72FB68D3F80C3123F0E062FB68C3F805
:1010A0000C21FB68D3F80C3123F47C527B681B02C3
:1010B0001A43FB7A1B061A43FB68C3F80C2114374A
:1010C000BD465DF8047B704780B485B000AFF86022
:1010D0000B467A60FB72FB689A69FB7A072101FA7A
:1010E00003F3DB431A40FB7A796801FA03F31A43EE
:1010F000FB689A611437BD465DF8047B704700BFFA
:1011000080B485B000AFF8600B467A60FB72FB6874
:10111000D3F80821FB7A072101FA03F3DB431A40D5
:10112000FB7A796801FA03F31A43FB68C3F80821D4
:101130001437BD465DF8047B704700BF80B485B0AE
:1011400000AFF8600B467A60FB72FB68D3F80C21A5
:10115000FB7A072101FA03F3DB431A40FB7A796833
:1011600001FA03F31A43FB68C3F80C211437BD4698
:101170005DF8047B704700BF80B582B000AF786037
:101180007B680D4A934204D14FF40060FFF74AFA9E
:101190000EE07B68094A934203D10948FFF742FAFF
:1011A00006E07B68074A934202D10748FFF73AFA04
:1011B0000837BD4680BD00BF080003400800024854
:1011C00080000010084002480001001080B485B083
:1011D00000AF786039603B78C3F30203DBB21A4694
:1011E000BB78C3F30403DBB21B041343FB607B68CF
:1011F000FA68C3F8F021FB78C3F30013DBB21A07D7
:10120000FB78C3F38103DBB29B061A43FB78C3F37D
:101210004013DBB25B071343FB607B68D3F8F0211C
:10122000FB68134343F000427B68C3F8F021143796
:10123000BD465DF8047B704780B483B000AF786032
:101240007B68D3F8843043F080627B68C3F88420E5
:101250000C37BD465DF8047B704700BF80B483B097
:1012600000AF78607B68D3F8843023F080627B68BD
:10127000C3F884200C37BD465DF8047B704700BF7F
:1012800080B500AF0120FFF7CDF980BD80B582B0F9
:1012900000AF78603960FFF7F3FF3B685A697B68FD
:1012A0001A603B685B6843F400427B68C3F88020A7
:1012B0003B689A687B68C3F8A0203B68DA687B6863
:1012C000C3F8A4203B681A697B68C3F880223B6896
:1012D0001A687B68C3F8B8200837BD4680BD00BFD8
:1012E00080B485B000AFF860B9603B601346FB7115
:1012F000FB79002B09D1BA6840F21F731340FA68DA
:101300003968283142F8213007E0BA68054B1340AC
:10131000FA683968283142F821301437BD465DF843
:10132000047B704700001F0780B485B000AF786071
:101330007B68D3F8803043F000427B68C3F880209C
:101340000023FB7316E0FB7B0E4A52F82330BB6090
:10135000BB68D3F8803003F44033002B07D000BFC4
:10136000BB68D3F8803003F08053002BF8D1FB7BAF
:101370000133FB73FB7B032BE5D91437BD465DF8C6
:10138000047B7047042C000880B485B000AF7860FF
:101390000B46FB70FB78032B03D9FB78043BFB6007
:1013A00001E0FB78FB607B68D3F8403123F00F024B
:1013B0007B68C3F840217B68D3F84021FB681A435F
:1013C0007B68C3F840211437BD465DF8047B704745
:1013D00080B582B000AF786039603B687868596842
:1013E0000022002300F028F83B6878685968012241
:1013F000002300F021F83B687868996800220123F7
:1014000000F01AF83B68786899680122012300F01F
:1014100013F83B681A697B68C3F880203B68DA6878
:101420007B68C3F8B8203B6878681968FFF7CEFE80
:101430000837BD4680BD00BF80B48DB000AFF860F6
:10144000B9603B601346FB71FB79002B13D1082375
:10145000FB624FF4E0637B620023BB621F233B62AD
:101460003B7AC3F30403DBB2FB617B7AC3F3020371
:10147000DBB2FB7613E01823FB624FF0E0637B6284
:101480001023BB624FF4F8133B62BB7AC3F304032F
:10149000DBB2FB61FB7AC3F30203DBB2FB76FB68D2
:1014A0003A68283253F822307B617B6ADB437A69E1
:1014B00013407B61FA7EFB6A02FA03F37A691343F5
:1014C0007B613B6ADB437A6913407B61BB6AFA69E3
:1014D00002FA03F37A6913437B61FB683A682832A6
:1014E000796943F822103437BD465DF8047B7047B4
:1014F00080B485B000AF78600B46FB707B68D3F892
:101500008030FB60FB6823F00303FB60FB78FA6824
:101510001343FB607B68FA68C3F880201437BD462C
:101520005DF8047B704700BF80B586B000AF78607F
:1015300039600023FB7509E0FB7D394A52F82330FE
:101540001846FFF78BFEFB7D0133FB75FB7D032BFC
:10155000F2D900233B613B681B7803F00303DBB245
:10156000002B02D04FF400633B610023FB7521E0A8
:10157000FB7D2B4A52F82330D3F88430FB60FB68A4
:1015800023F44073FB603B681B78C3F38103DBB239
:101590001B02FA681343FB60FA683B691343FB6064
:1015A000FB7D1F4A52F82330FA68C3F88420FB7D84
:1015B0000133FB75FB7D032BDAD93B685B6843F491
:1015C000000343F400437A68C2F800323B689B682A
:1015D00043F001027B68C3F804223B681B7803F0E8
:1015E0000303DBB2022B07D17B68D3F8043243F448
:1015F00080327B68C3F804220023FB7509E0FB7D81
:10160000074A52F823301846FFF716FEFB7D0133D8
:10161000FB75FB7D032BF2D91837BD4680BD00BF9B
:10162000042C000880B489B000AFF860B9607A601B
:101630007B681B7ABB61FB68D3F888307B61BB6831
:10164000012202FA03F3DB437A6913407B61BB6832
:10165000BA6902FA03F37A6913437B61FB687A691A
:10166000C3F888207B685B7A5BB2002B29DB002300
:10167000FB61BB68012B0AD10823FB61FB68D3F82F
:10168000B03023F4F852FB68C3F8B0200CE0BB681C
:10169000002B09D10023FB61FB68D3F8B03023F0A5
:1016A0001F02FB68C3F8B020FB68D3F8B0307A683B
:1016B000527A51B2FA6901FA02F21A43FB68C3F88E
:1016C000B020FB68D3F8C8207B685B681A43FB68CE
:1016D000C3F8C8207B681968FB68BA68803243F891
:1016E00022102437BD465DF8047B704780B400AFFC
:1016F000BD465DF8047B704780B483B000AF78606E
:1017000039607B681A6C3B681A437B681A640C3733
:10171000BD465DF8047B704780B483B000AF78604D
:1017200039607B681A6C3B68DB431A407B681A643B
:101730000C37BD465DF8047B704700BF80B483B0B2
:1017400000AF78607B689B6BDBB223F07F03DBB27A
:1017500018460C37BD465DF8047B704780B483B0F3
:1017600000AF786039603B684FF480329A407B6804
:101770009A660C37BD465DF8047B704780B483B031
:1017800000AF786039607B68D3F808213B681A4362
:101790007B68C3F808210C37BD465DF8047B7047B1
:1017A00080B483B000AF786039607B68D3F80821DB
:1017B0003B68DB431A407B68C3F808210C37BD4601
:1017C0005DF8047B704700BF80B483B000AF7860E1
:1017D0007B684FF40042C3F818210C37BD465DF812
:1017E000047B704780B483B000AF78607B68D3F827
:1017F000143103F48053002B14BF01230023DBB208
:1018000018460C37BD465DF8047B704780B483B042
:1018100000AF78607B68D3F8143103F40063002BC9
:1018200014BF01230023DBB218460C37BD465DF818
:10183000047B704780B483B000AF786039607B6808
:10184000D3F80C213B68DB431A407B68C3F80C21BA
:101850000C37BD465DF8047B704700BF80B483B091
:1018600000AF78607B68D3F8143103F00803002BD5
:1018700014BF01230023DBB218460C37BD465DF8C8
:10188000047B704780B584B000AF78600023FB73A1
:101890007B685B685B6898470346FB73FB7B184675
:1018A0001037BD4680BD00BF80B586B000AFF86080
:1018B000B9607A600423FB75FB685B6893F8293094
:1018C000002B00D007E0F868B9687A6800F008F8E3
:1018D0000346FB7500BFFB7D18461837BD4680BD2B
:1018E00080B586B000AFF860B9607A600423FB75FC
:1018F000FB689B683B61FB685B6893F82930002BB1
:1019000044D10223FB753B691B7EDBB283F00103EC
:10191000DBB2002B3AD0BB68002B35D07B68002BA4
:1019200032D03B69BA681A603B697A689A603B6951
:101930000022DA603B6901221A76FB685B6893F843
:101940002B30002B0CD0FB681B681846FFF73CFFC0
:10195000FB681B6818464FF08041FFF70FFF06E059
:10196000FB681B6818464FF40051FFF7C5FE0023C3
:10197000FB75FB681A68FB685B6893F82D301046AE
:101980001946FFF7EBFE01E00323FB75FB7D1846CC
:101990001837BD4680BD00BF80B584B000AF786009
:1019A0007B689B68FB60FB68DA68FB689B689A420F
:1019B00040D27B685B6893F82B30002B27D01AE06D
:1019C000FB68DA68FB689B689A4212D27B681968E8
:1019D000FB681A68FB68DB6813441B789BB20846F7
:1019E0001946FFF701FAFB68DB685A1CFB68DA60EE
:1019F00001E000BF53E07B681B681846FFF7F2FE6A
:101A0000034683F00103DBB2002BD9D147E07B68AA
:101A10001968FB681A68FB68DB6813441B789BB283
:101A200008461946FFF7E0F9FB68DB685A1CFB68BB
:101A3000DA6034E07B681B681846FFF7E7FE034670
:101A4000002B2CD07B685B6893F82B30002B07D0E1
:101A50007B681B6818464FF08041FFF7A1FE06E047
:101A60007B681B6818464FF40051FFF755FE00BF16
:101A70007B681B681846FFF761FE0346802BF7D092
:101A8000FB6800221A76FB6800221A607B685B689C
:101A90009B68002B03D07B685B689B689847103776
:101AA000BD4680BD90B585B000AF78607B689B680F
:101AB000FB607B685B6893F82C30002B4ED032E0E3
:101AC000FB685A69FB681B699A4211D2FB685A6825
:101AD000FB685B69D4187B681B681846FFF7AAF996
:101AE0000346DBB22370FB685B695A1CFB685A61D2
:101AF000FB685A69FB681B699A4214D1FB68002293
:101B00005A767B681B6818464FF0C041FFF792FE7B
:101B10007B685B68DB68002B04D07B685B68DB68F4
:101B200098470BE00AE07B681B681846FFF796FEB3
:101B3000034683F00103DBB2002BC1D1FB685A6975
:101B4000FB681B699A423AD2FB681A69FB685B69B9
:101B5000D31A7868194600F035F830E0FB685A6906
:101B6000FB681B699A4211D2FB685A68FB685B6983
:101B7000D4187B681B681846FFF75CF90346DBB294
:101B80002370FB685B695A1CFB685A61FB685A69E1
:101B9000FB681B699A4212D1FB6800225A767B6867
:101BA0001B6818464FF44041FFF7B6FD7B685B6841
:101BB000DB68002B03D07B685B68DB6898471437D1
:101BC000BD4690BD80B584B000AF78603960002319
:101BD000FB607B685B6893F82C301A4601239340C6
:101BE000BB603A68BB689A4203D23B68013BFB602A
:101BF00002E0BB68013BFB607B681A687B685B683E
:101C000093F82C3010461946FA68FFF73BFA103764
:101C1000BD4680BD80B400AF044BDB6803F4E063D5
:101C20001B0A1846BD465DF8047B704700ED00E0D6
:101C300080B483B000AF0346FB71084997F90730C1
:101C40005B09FA7902F01F02012000FA02F241F862
:101C500023200C37BD465DF8047B704700E100E0AF
:101C600080B483B000AF03463960FB7197F9073049
:101C7000002B0BDA0D49FB7903F00F03043B3A68A4
:101C8000D2B29200D2B20B441A7609E0084997F911
:101C900007303A68D2B29200D2B20B4483F80023E4
:101CA0000C37BD465DF8047B704700BF00ED00E0D7
:101CB00000E100E080B489B000AFF860B9607A60FC
:101CC000FB6803F00703FB61FB69C3F10703062B05
:101CD00028BF0623BB61FB690633062B02D9FB69CB
:101CE000013B00E000237B61BB69012202FA03F3A0
:101CF0005A1EBB681A407B699A407B69012101FA30
:101D000003F3591E7B680B40134318462437BD4626
:101D10005DF8047B704700BF80B483B000AF78608B
:101D20000B46FB701346BB70F878FB787A68063375
:101D30009B0013445B6823F00702BB781A43796861
:101D4000831D9B000B445A600C37BD465DF8047B35
:101D5000704700BF80B483B000AF78607B681B6CB5
:101D600023F00F0343F002027B681A640C37BD4670
:101D70005DF8047B704700BF80B582B000AF0023E0
:101D8000FB712D4804212D4AFEF70EFB2C482D49EE
:101D9000FEF7D4FF2A4800210122FFF7BDFF2848A3
:101DA000202105220123FFF71BF9254800210522E8
:101DB0000023FFF73DF92248FFF7CCFF1E4805211D
:101DC000214AFEF7F1FA1E4810210022FFF77CF9A4
:101DD0001B4810210322FFF793F91948102105220F
:101DE000FFF7ACF9164813210522FFF7A7F9FFF713
:101DF00011FF034618463F210022FFF75BFF034611
:101E000057201946FFF72CFF5720FFF711FFFFF768
:101E100001FF034618463F210022FFF74BFF034610
:101E200059201946FFF71CFF5920FFF701FFFB79E6
:101E300018460837BD4680BD00810248682C00085E
:101E400000000340142C0008202C000880B500AFCF
:101E50000148FFF7A1FD80BD0000002080B500AF64
:101E60000148FFF71FFE80BD0000002080B400AFD6
:101E7000044BDB6803F4E0631B0A1846BD465DF8BB
:101E8000047B704700ED00E080B483B000AF0346F0
:101E90003960FB7197F90730002B0BDA0D49FB799C
:101EA00003F00F03043B3A68D2B29200D2B20B4463
:101EB0001A7609E0084997F907303A68D2B29200D9
:101EC000D2B20B4483F800230C37BD465DF8047B87
:101ED000704700BF00ED00E000E100E080B489B091
:101EE00000AFF860B9607A60FB6803F00703FB613C
:101EF000FB69C3F10703062B28BF0623BB61FB69FF
:101F00000633062B02D9FB69013B00E000237B610D
:101F1000BB69012202FA03F35A1EBB681A407B69AF
:101F20009A407B69012101FA03F3591E7B680B403B
:101F3000134318462437BD465DF8047B704700BF45
:101F400080B582B000AF78607B68013BB3F1807FE1
:101F500001D301230FE00A4A7B68013B53604FF035
:101F6000FF303F21FFF790FF054B00229A60044BA2
:101F700007221A60002318460837BD4680BD00BFFF
:101F800010E000E090B486B000AF78600023FB73EF
:101F90006B497A681346DB0013449B000B441833EB
:101FA0001B68BB60674B1B68002B09D17A6813461E
:101FB000DB0013449B00624A1344624A1360BBE097
:101FC000604B1B687B61BB683B61ABE07B699B69D5
:101FD0001A463B699B1A3B613B69002B7ADC7B69A3
:101FE0005B68002B26D07B6959687A681346DB0052
:101FF00013449B00524A13440B607B695968504854
:102000007A681346DB0013449B00034459604C4933
:102010007A681346DB0013449B000B447A691A600C
:102020007A681346DB0013449B00454A1A447B69D7
:102030005A601CE0434B196841487A681346DB003C
:1020400013449B00034419603E4B19687A68134699
:10205000DB0013449B003A4A13444B607A681346F2
:10206000DB0013449B00364A1344364A136034495C
:102070007A681346DB0013449B000B441B689A6983
:102080003B69D1182E487A681346DB0013449B0045
:102090000344183319602A497A681346DB00134455
:1020A0009B000B44196826487A681346DB001344EA
:1020B0009B0003441B689869214C7A681346DB0037
:1020C00013449B00234418331B68C31A8B610123FC
:1020D000FB7324E03B69002B21DD7B691B68002B2F
:1020E0001DD117497A681346DB0013449B000B444B
:1020F0007A695A607A681346DB0013449B00104AE1
:102100001A447B691A6039690D487A681346DB0006
:1021100013449B000344183319600123FB737B694C
:102120001B687B617B69002B06D0FB7B83F001037E
:10213000DBB2002B7FF44AAF1837BD4690BC704726
:10214000E0000020C400002080B485B000AF7860BB
:102150007A681346DB0013449B00294A1344FB6052
:10216000FB685B68002B07D1FB681B68002B03D161
:10217000244B00221A603DE0FB685B68002B14D101
:10218000FB681B681F4A13601E4B1B6800225A60C5
:102190001C4B1B681B4A12689169FA6892690A44D1
:1021A0009A61FB6800221A6024E0FB681B68002B20
:1021B00007D1FB685B6800221A60FB6800225A6046
:1021C00018E0FB685B68FA6812681A60FB681B68B5
:1021D000FA6852685A60FB681B68FA68126891696D
:1021E000FA6892690A449A61FB6800221A60FB68E7
:1021F00000225A601437BD465DF8047B704700BF6B
:10220000E0000020C400002080B582B000AF2F4B5A
:102210001B687B6050E07B6893F82030002B13D064
:102220007B685B691846FFF78FFF7B6800225A7353
:102230007B685B691A4601239340DA43244B1B6891
:102240001340234A136034E07B681B7B002B12D1C0
:102250007B685B7B012B2CD17B685B691846FFF7A1
:1022600073FF7B6802225A737B689B687A681269E5
:10227000104698471DE07B681B7B012B18D17B68BB
:102280005B7B012B15D17B685B691846FFF75CFF10
:102290007B68DA697B689A617B685B691846FFF73F
:1022A00071FE7B689B687A6812691046984700E067
:1022B00009E0064B1B687B607B68002B03D07B68C2
:1022C0009B69002BA7D00837BD4680BDC400002005
:1022D000C800002080B582B000AF0E4B1B687B6049
:1022E0000D4B1B6801330C4A13607B68002B0ED02A
:1022F0007B689B69012B05D97B689B695A1E7B68AB
:102300009A6104E07B6800229A61FFF77DFF08373D
:10231000BD4680BDC4000020CC00002080B584B044
:1023200000AF78600023FB737B681B7883F00103A8
:10233000DBB2002B20D0134B00221A601248FFF7AB
:10234000FFFD0346FB73FB7B012B15D0FFF78EFDD2
:10235000034618463F210022FFF7C0FD03464FF019
:10236000FF301946FFF790FD084B00221A607B688A
:1023700001221A700023FB73FB7B18461037BD4601
:1023800080BD00BFC4000020C0D40100C8000020F0
:1023900080B489B000AFF8607A603B600B46FB7296
:1023A0000023FB610023BB6100237B61FB68B3F565
:1023B0007A7F02D20023FB617BE00023BB6175E0E2
:1023C000BB6901229A403E4B1B681340002B6AD127
:1023D000BB6901229A403A4B1B681343384A136089
:1023E0003849BA691346DB0013449B000B44103391
:1023F000BA695A603349BA691346DB0013449B003B
:102400000B440833FA7A1A712E49BA691346DB0075
:1024100013449B000B44083302225A71FB682A4A7A
:10242000A2FB03239B097B617B69591C2548BA6980
:102430001346DB0013449B00034418331960214901
:10244000BA691346DB0013449B000B4418337A69C6
:102450005A601C49BA691346DB0013449B000B44C5
:1024600008337A681A601749BA691346DB001344C7
:102470009B000B4410333A681A601249BA6913463C
:10248000DB0013449B000B4400225A600D49BA69DB
:102490001346DB0013449B000B4400221A60BB6907
:1024A0000133FB6105E0BB690133BB61BB69072BED
:1024B00086D9FB6918462437BD465DF8047B704712
:1024C000C8000020E0000020D34D621080B584B029
:1024D00000AF78600123FB737B685A1E1A491346CC
:1024E000DB0013449B000B4408335B79022B26D19D
:1024F0007B685A1E7B68591E13480B46DB000B4451
:102500009B00034418335B68591C0F481346DB00DB
:1025100013449B000344183319607B685A1E0A4910
:102520001346DB0013449B000B44083301225A710D
:102530007B68013B1846FFF725FD0023FB73FB7BFF
:1025400018461037BD4680BDE000002080B483B03F
:1025500000AF786039607B68D3F880203B68103327
:10256000194601238B401A437B68C3F880200C373F
:10257000BD465DF8047B704780B584B000AF7860DD
:102580007B681B7E022B49D17B685A697B681B697B
:1025900010461946FEF77AFE0023FB602FE07B68A9
:1025A000FA6853F8223019687B68FA6853F82230C9
:1025B0005B6808461946FEF70BFF7B68FA6853F81C
:1025C00022301B6818460321FEF792FF7B68FA68E9
:1025D00053F822301B7A83F00103DBB2002B05D0C5
:1025E0007B685B691846F968FFF7B0FF7B68FA689B
:1025F00053F8223000225A72FB680133FB60FB68FB
:10260000032BCCD97B685B7E002B04D07B685B6995
:102610001846FEF789FE7B6800221A767B681B7ECF
:1026200018461037BD4680BD80B582B000AF7860D7
:102630007B6819687B681A7C7B68043308461146FE
:102640001A46FDF7B1FE7B6819687B681A7C7B68C7
:102650005B7C084611461A46FEF730FB00231846FD
:102660000837BD4680BD00BF80B485B000AF78603C
:102670007B6803F00703FB600C4BDB68BB60BA6848
:102680004FF6FF031340BB60FB681A02BB6813439D
:1026900043F0BF6343F40033BB60044ABB68D360BC
:1026A0001437BD465DF8047B704700BF00ED00E0C5
:1026B00080B582B000AF0120FFF7D6FF72B6214B84
:1026C000214A9A60BFF34F8F62B61E4A1D4BD3F862
:1026D000883043F47003C2F888301C4B03F58053F4
:1026E00014331B687B607B6823F00F037B607B687F
:1026F00043F003037B60154B03F5805314337A6872
:102700001A60104A0F4B5B6923F0100353610D4AA6
:102710000C4B5B6923F0080353610A4A094B5B6A5F
:1027200023F480335362074A064B5B6A23F4003379
:102730005362044A034B5B6A23F4802353620837D5
:10274000BD4680BD00ED00E000000008001000580C
:1027500080B485B000AF78600023FB737B680122F2
:102760001A70FB7B18461437BD465DF8047B704732
:1027700080B400AF024B1846BD465DF8047B70473D
:10278000001BB700B0B586B000AF124B3C1D1D4614
:102790000FCD0FC42B6823603B1D1846FDF7D2FEFA
:1027A0000020FDF7C7FF0020FDF77CFF0420FEF7A7
:1027B0004DF801202021FEF785F80020FDF786FF67
:1027C0000120FEF76BF80120FEF754F81837BD46DC
:1027D000B0BD00BF042D000880B400AF044BDB681F
:1027E00003F4E0631B0A1846BD465DF8047B70479E
:1027F00000ED00E080B483B000AF0346FB710849F0
:1028000097F907305B09FA7902F01F02012000FAFC
:1028100002F241F823200C37BD465DF8047B704777
:1028200000E100E080B483B000AF03463960FB7183
:1028300097F90730002B0BDA0D49FB7903F00F03F2
:10284000043B3A68D2B29200D2B20B441A7609E045
:10285000084997F907303A68D2B29200D2B20B44D5
:1028600083F800230C37BD465DF8047B704700BF3A
:1028700000ED00E000E100E080B489B000AFF86056
:10288000B9607A60FB6803F00703FB61FB69C3F181
:102890000703062B28BF0623BB61FB690633062B03
:1028A00002D9FB69013B00E000237B61BB69012287
:1028B00002FA03F35A1EBB681A407B699A407B698F
:1028C000012101FA03F3591E7B680B40134318469C
:1028D0002437BD465DF8047B704700BF80B483B0E9
:1028E00000AF78607B68D3F8043243F400727B68F1
:1028F000C3F804220C37BD465DF8047B704700BF67
:1029000080B485B000AFF860B9607A60FB68BA68DF
:10291000603253F822207B68012101FA03F342EA76
:102920000301FB68BA68603243F822101437BD46D1
:102930005DF8047B704700BF80B485B000AFF860DD
:10294000B9607A607B681968FB68BA68A03243F89E
:1029500022101437BD465DF8047B704790B585B0F2
:1029600000AF78607B681B7E022B40F099807B680B
:10297000DB681846FFF700FE0346BB737B68DB6825
:102980005A697B689B681046196800220023FEF78D
:10299000A7FC7B68DB685A697B685B681046194650
:1029A000FEF7C2FD0023FB732EE07B681B68FA7BF9
:1029B00053F82230BB60BB689A68BB685B7B1946E2
:1029C000BB681B6810461A46FEF72CFEBB689A6867
:1029D000BB681B689B78C3F30303DBB21946BB6873
:1029E0005B6810461A46FFF7A7FF7B68DB685A69E9
:1029F000BB681B7B1946BB685B7B10461A46FFF71A
:102A00007FFFFB7B0133FB73FB7B002BCDD07B680F
:102A10005B681B7A03F00803DBB2002B2CD07B68C9
:102A20001B69002B28D07B681B691B68DCB2FFF791
:102A3000D3FE01467B681B695A687B681B699B68EB
:102A4000084611461A46FFF717FF024663B21846BA
:102A50001146FFF7E7FE7B68DB685A697B685B7E9F
:102A600010461946FEF790FC7B681B691B68DBB2B9
:102A70005BB21846FFF7BEFE7B685B69002B02D095
:102A80007B685B6998477B689B7E002B05D07B68E1
:102A9000DB685B691846FFF721FF7B68BA7B1A7613
:102AA0007B681B7E18461437BD4690BD80B582B04A
:102AB00000AF0023FB711948FFF74AFE0346FB7184
:102AC000FB79002B04D11648FEF7DCFE0346FB71B0
:102AD000FB79002B04D11348FFF7A6FD0346FB71D9
:102AE000FB79002B04D11048FFF718FC0346FB715B
:102AF000FB79002B04D10D48FFF796FD0346FB71CF
:102B0000FB79002B04D10A48FFF728FF0346FB712D
:102B1000FB7918460837BD4680BD00BFD4000020B1
:102B200000000020DC2C0008D0000020F02C000861
:102B30007800002080B400AF074B1B785BB2002BFD
:102B40000CBF01230023DBB2DAB2034B1A70BD467F
:102B50005DF8047B704700BFDC00002080B582B0C8
:102B600000AFFFF7A3FF0346FB71FB79002B00D0FA
:102B7000FEE744F6206001210A4A0023FFF708FC23
:102B80000246094B1A60084B1B681846FFF79EFC6B
:102B9000064807490E22FEF787FE064B00221A70F0
:102BA000F6E700BF352B00080002002000000020DF
:102BB000980000209400002070B50E4B0E4CE41AD3
:102BC000A41000251E46A54204D056F8253098478B
:102BD0000135F8E7FEF78AFD084C094BE41AA4100A
:102BE00000251E46A54204D056F8253098470135E9
:102BF000F8E770BDA8000020A8000020A800002071
:102C0000A80000200044004000480040004C004064
:102C1000005000408025000008080110000000005E
:102C20009000000001000000020000000081024846
:102C300005000000202C0008142C0008791D000855
:102C40000000000000000000000000000000000084
:102C50000000000000000000000000002C2C000814
:102C60000000000505030000000000000100000056
:102C70000200000000000000000000000000000052
:102C80000000000000000000000000000000000044
:102C90000000000000000000000000000000000034
:102CA0000000000000000000000000000000000024
:102CB0000000000000000000000000000000000014
:102CC0000000000000000000030000000000000001
:102CD0000000000000000000000000000081024829
:102CE0008000000000000100000000000100000062
:102CF0000081024800000000000000000000000009
:102D00000E0000005002040100000100000000005D
:102D1000000001000101010100020000100000009C
:102D20003F0000000000000005000000000000005F
:042D30000800000097
:102D340000000340382C0008A80000200044004094
:102D4400742C00080102000000480040882C000890
:102D540001020000004C00409C2C0008010200000D
:102D640000500040B02C0008010200000C000020BC
:102D7400180000202400002030000020C42C00088B
:102D8400004000400201000002002F00000000008B
:102D940000FF000058000020D8000020004400403C
:102DA400000000006400002074000020282D0008AA
:102DB400182D00083C0000201C2D00080000000015
:102DC40002060100000100000A48656C6C6F207760
:082DD4006F726C642100000025
:0400000508000201EC
:00000001FF
